:020000040800F2
:100000000050002095280008A5260008AB2600080F
:10001000B1260008B7260008BD2600080000000031
:10002000000000000000000000000000C3260008DF
:10003000CF26000800000000DB260008E7260008A5
:10004000DD280008DD280008DD280008DD2800087C
:10005000DD280008DD280008DD280008DD2800086C
:10006000DD280008DD280008DD280008DD2800085C
:10007000DD280008DD280008DD280008DD2800084C
:10008000DD280008DD280008DD280008DD2800083C
:10009000DD280008DD280008DD280008DD2800082C
:1000A000DD280008DD280008DD280008DD2800081C
:1000B000DD280008DD280008DD280008DD2800080C
:1000C000DD280008DD280008DD280008DD280008FC
:1000D000DD280008F5260008DD280008DD280008D6
:1000E000DD280008DD280008DD28000800000000E9
:1000F0000000000000000000000000000000000000
:0C01000000000000000000005FF808F1A3
:1001100010B5054C237833B9044B13B10448AFF341
:1001200000800123237010BDE001002000000000CA
:10013000807C000808B5034B1BB103490348AFF3AB
:10014000008008BD00000000E4010020807C000861
:1001500010F8012B11F8013B012A28BF9A42F7D071
:10016000D01A7047034613F8012B002AFBD1181A46
:100170000138704781F0004102E000BF83F0004386
:1001800030B54FEA41044FEA430594EA050F08BF32
:1001900090EA020F1FBF54EA000C55EA020C7FEAF6
:1001A000645C7FEA655C00F0E2804FEA5454D4EB73
:1001B0005555B8BF6D420CDD2C4480EA020281EA3D
:1001C000030382EA000083EA010180EA020281EA75
:1001D0000303362D88BF30BD11F0004F4FEA0131C7
:1001E0004FF4801C4CEA113102D0404261EB4101D6
:1001F00013F0004F4FEA03334CEA133302D052425C
:1002000063EB430394EA050F00F0A780A4F1010417
:10021000D5F1200E0DDB02FA0EFC22FA05F2801851
:1002200041F1000103FA0EF2801843FA05F3594137
:100230000EE0A5F120050EF1200E012A03FA0EFCB6
:1002400028BF4CF0020C43FA05F3C01851EBE371E0
:1002500001F0004507D54FF0000EDCF1000C7EEBFD
:1002600000006EEB0101B1F5801F1BD3B1F5001F3B
:100270000CD349085FEA30004FEA3C0C04F101045A
:100280004FEA445212F5800F80F09A80BCF1004F83
:1002900008BF5FEA500C50F1000041EB045141EA05
:1002A000050130BD5FEA4C0C404141EB0101013CCE
:1002B00028BFB1F5801FE9D291F0000F04BF0146BD
:1002C0000020B1FA81F308BF2033A3F10B03B3F18F
:1002D00020020CDA0C3208DD02F1140CC2F10C021F
:1002E00001FA0CF021FA02F10CE002F11402D8BF7D
:1002F000C2F1200C01FA02F120FA0CFCDCBF41EA49
:100300000C019040E41AA2BF01EB0451294330BD17
:100310006FEA04041F3C1CDA0C340EDC04F11404F4
:10032000C4F1200220FA04F001FA02F340EA0300CB
:1003300021FA04F345EA030130BDC4F10C04C4F111
:10034000200220FA02F001FA04F340EA03002946F1
:1003500030BD21FA04F0294630BD94F0000F83F43B
:10036000801306BF81F480110134013D4EE77FEA1E
:10037000645C18BF7FEA655C29D094EA050F08BF6A
:1003800090EA020F05D054EA000C04BF194610464B
:1003900030BD91EA030F1EBF0021002030BD5FEA8F
:1003A000545C05D14000494128BF41F0004130BDB7
:1003B00014F580043CBF01F5801130BD01F000450B
:1003C00045F0FE4141F470014FF0000030BD7FEA7E
:1003D000645C1ABF194610467FEA655C1CBF0B4679
:1003E000024650EA013406BF52EA033591EA030F90
:1003F00041F4002130BD00BF90F0000F04BF002188
:10040000704730B54FF4806404F132044FF00005BA
:100410004FF0000150E700BF90F0000F04BF002133
:10042000704730B54FF4806404F1320410F0004599
:1004300048BF40424FF000013EE700BF42004FEA94
:10044000E2014FEA31014FEA02701FBF12F07F4311
:1004500093F07F4F81F06051704732F07F4208BFC8
:10046000704793F07F4F04BF41F40021704730B5CF
:100470004FF4607401F0004521F000411CE700BF1B
:1004800050EA010208BF704730B54FF000050AE09E
:1004900050EA010208BF704730B511F0004502D59F
:1004A000404261EB41014FF4806404F132045FEAA1
:1004B000915C3FF4D8AE4FF003025FEADC0C18BF4A
:1004C00003325FEADC0C18BF033202EBDC02C2F13C
:1004D000200300FA03FC20FA02F001FA03FE40EACE
:1004E0000E0021FA02F11444BDE600BF70B54FF0D2
:1004F000FF0C4CF4E06C1CEA11541DBF1CEA1355B0
:1005000094EA0C0F95EA0C0F00F0DEF82C4481EA17
:10051000030621EA4C5123EA4C5350EA013518BF37
:1005200052EA033541F4801143F4801338D0A0FB24
:1005300002CE4FF00005E1FB02E506F00042E0FBD1
:1005400003E54FF00006E1FB03569CF0000F18BFD7
:100550004EF0010EA4F1FF04B6F5007F64F540747F
:1005600004D25FEA4E0E6D4146EB060642EAC62112
:1005700041EA55514FEAC52040EA5E504FEACE2E7F
:10058000B4F1FD0C88BFBCF5E06F1ED8BEF1004F82
:1005900008BF5FEA500E50F1000041EB045170BDFE
:1005A00006F0004646EA010140EA020081EA030142
:1005B000B4EB5C04C2BFD4EB0C0541EA045170BD3E
:1005C00041F480114FF0000E013C00F3AB8014F1B8
:1005D000360FDEBF002001F0004170BDC4F1000401
:1005E000203C35DA0C341BDC04F11404C4F1200582
:1005F00000FA05F320FA04F001FA05F240EA0200DD
:1006000001F0004221F0004110EBD37021FA04F612
:1006100042EB06015EEA430E08BF20EAD37070BDCC
:10062000C4F10C04C4F1200500FA04F320FA05F02B
:1006300001FA04F240EA020001F0004110EBD3702D
:1006400041F100015EEA430E08BF20EAD37070BD9D
:10065000C4F1200500FA05F24EEA020E20FA04F376
:1006600001FA05F243EA020321FA04F001F0004125
:1006700021FA04F220EA020000EBD3705EEA430E96
:1006800008BF20EAD37070BD94F0000F0FD101F0C5
:100690000046400041EB010111F4801F08BF013CFE
:1006A000F7D041EA060195F0000F18BF704703F03C
:1006B0000046520043EB030313F4801F08BF013DC3
:1006C000F7D043EA0603704794EA0C0F0CEA13557F
:1006D00018BF95EA0C0F0CD050EA410618BF52EA39
:1006E0004306D1D181EA030101F000414FF000003F
:1006F00070BD50EA410606BF1046194652EA43064D
:1007000019D094EA0C0F02D150EA013613D195EAC0
:100710000C0F05D152EA03361CBF104619460AD108
:1007200081EA030101F0004141F0FE4141F4700112
:100730004FF0000070BD41F0FE4141F4780170BD02
:1007400070B54FF0FF0C4CF4E06C1CEA11541DBF67
:100750001CEA135594EA0C0F95EA0C0F00F0A7F869
:10076000A4EB050481EA030E52EA03354FEA013196
:1007700000F088804FEA03334FF0805545EA1313A9
:1007800043EA12634FEA022245EA111545EA106571
:100790004FEA00260EF000419D4208BF964244F108
:1007A000FD0404F5407402D25B084FEA3202B61A27
:1007B00065EB03055B084FEA32024FF480104FF4FB
:1007C000002CB6EB020E75EB030E22BFB61A75466F
:1007D00040EA0C005B084FEA3202B6EB020E75EB02
:1007E000030E22BFB61A754640EA5C005B084FEA6A
:1007F0003202B6EB020E75EB030E22BFB61A754637
:1008000040EA9C005B084FEA3202B6EB020E75EB41
:10081000030E22BFB61A754640EADC0055EA060E02
:1008200018D04FEA051545EA16754FEA06164FEA45
:10083000C30343EA52734FEAC2025FEA1C1CC0D1F1
:1008400011F4801F0BD141EA00014FF000004FF07E
:10085000004CB6E711F4801F04BF01430020B4F13F
:10086000FD0C88BFBCF5E06F3FF6AFAEB5EB030CF7
:1008700004BFB6EB020C5FEA500C50F1000041EBF4
:10088000045170BD0EF0004E4EEA113114EB5C04C1
:10089000C2BFD4EB0C0541EA045170BD41F4801194
:1008A0004FF0000E013C90E645EA060E8DE60CEA9C
:1008B000135594EA0C0F08BF95EA0C0F3FF43BAFB9
:1008C00094EA0C0F0AD150EA01347FF434AF95EA70
:1008D0000C0F7FF425AF104619462CE795EA0C0F54
:1008E00006D152EA03353FF4FDAE1046194622E721
:1008F00050EA410618BF52EA43067FF4C5AE50EAFB
:1009000041047FF40DAF52EA43057FF4EBAE12E7EA
:100910004FF0FF3C06E000BF4FF0010C02E000BFCB
:100920004FF0010C4DF804CD4FEA410C7FEA6C5CAE
:100930004FEA430C18BF7FEA6C5C1BD001B050EA51
:10094000410C0CBF52EA430C91EA030F02BF90EA3C
:10095000020F0020704710F1000F91EA030F58BFFB
:10096000994208BF90422CBFD8176FEAE37040F05D
:10097000010070474FEA410C7FEA6C5C02D150EAFB
:10098000013C07D14FEA430C7FEA6C5CD6D152EAB6
:10099000033CD3D05DF8040B704700BF844610467B
:1009A00062468C461946634600E000BF01B5FFF77A
:1009B000B7FF002848BF10F1000F01BD4DF808ED4A
:1009C000FFF7F4FF0CBF012000205DF808FB00BF1B
:1009D0004DF808EDFFF7EAFF34BF012000205DF875
:1009E00008FB00BF4DF808EDFFF7E0FF94BF0120C2
:1009F00000205DF808FB00BF4DF808EDFFF7CEFFC3
:100A000094BF012000205DF808FB00BF4DF808ED01
:100A1000FFF7C4FF34BF012000205DF808FB00BFD2
:100A20004FEA410212F5001215D211D56FF4787316
:100A3000B3EB625212D94FEAC12343F0004343EAB9
:100A4000505311F0004F23FA02F018BF4042704794
:100A50004FF00000704750EA013005D111F000401E
:100A600008BF6FF0004070474FF00000704700BFB4
:100A70004A0011D212F5001211D20DD56FF478731D
:100A8000B3EB62520ED44FEAC12343F0004343EA72
:100A9000505323FA02F070474FF00000704750EABD
:100AA000013002D14FF0FF3070474FF00000704727
:100AB00038B505460C460022002328462146FFF79C
:100AC00087FF28B928462146BDE8384000F00AB81B
:100AD000284604F1004100F005F8404261EB410175
:100AE00038BD00BFD0B500220B4B06460F46FFF7BE
:100AF000FDFCFFF7BDFF0446FFF77EFC0022074B1D
:100B0000FFF7F4FC02460B4630463946FFF736FB4A
:100B1000FFF7AEFF2146D0BD0000F03D0000F041E0
:100B200080B582B000AF7860786801F07FF8034646
:100B3000002B03D14FF00002044B02E07B68D3E9A5
:100B40000623104619460837BD4680BD0000F87FD1
:100B500080B485B000AF786039607B68002B02D02C
:100B60003B68002B01D1012356E07A683B689A422A
:100B70000DD1002350E07B681B78002B01D10023AE
:100B80004AE07B6801337B603B6801333B607B68F4
:100B90001B78FB73FB7B0133224A13441B7803F061
:100BA0000303012B03D1FB7B03F1200200E0FA7B5E
:100BB0003B681B78BB73BB7B01331A490B441B7822
:100BC00003F00303012B02D1BB7B203300E0BB7B8E
:100BD0009A42D0D07B681B787B737B7B0133114AB0
:100BE00013441B7803F00303012B03D17B7B03F138
:100BF000200200E07A7B3B681B783B733B7B013330
:100C000008490B441B7803F00303012B02D13B7B03
:100C1000203300E03B7BD31A18461437BD4680BC16
:100C2000704700BFD07D000880B584B000AF786009
:100C30007B681B6828209847F860FB68002B04D06D
:100C400028220021F86805F0CCF9FB681846103717
:100C5000BD4680BD80B584B000AF78600023FB60E6
:100C600037E07B681B68FB607B68DB6803F480739C
:100C7000002B08D17B689B68002B04D07B689B68A5
:100C80001846FFF7E7FF7B68DB6803F48073002BEF
:100C900009D17B681B69002B05D0124B5B687A6811
:100CA0001269104698477B68DB6803F40073002BD9
:100CB00009D17B681B6A002B05D00A4B5B687A68F8
:100CC000126A10469847074B5B6878689847FB683C
:100CD0007B607B68002BC4D100BF00BF1037BD46CE
:100CE00080BD00BF0000002080B400AF2E23184656
:100CF000BD4680BC7047000080B598B000AF7860FA
:100D000039604FF000024FF00003C7E914230023BD
:100D1000BB64FFF7E9FF034687F84F300023FB650C
:100D20003B68002B03D03B681B68002B01D10023DC
:100D3000A0E00023FB653DE03B681A683B689968CA
:100D4000FB6D0B4413441B78452B17DC2B2B40DB2E
:100D50002B3B01229A404C4B1340002B14BF012324
:100D60000023DBB2002B0BD102F00803002B14BFD1
:100D700001230023DBB2002B11D12AE0652B28D1FF
:100D80003B681A683B689968FB6D0B4413441978FB
:100D900007F10802FB6D13440A461A7007E007F1D9
:100DA0000802FB6D134497F84F201A7000BFFB6DCB
:100DB0000133FB65FB6D3E2B0DD83B68002B0AD041
:100DC0003B689A68FB6D1A443B685B689A42B3D3F0
:100DD00001E000BF00E000BF07F10802FB6D134413
:100DE00000221A7007F1480207F10803114618465D
:100DF00004F0E6FFC7E91401BA6C07F108039A4250
:100E000001D1002336E07968D7E91423C1E906232C
:100E10001BA3D3E90023D7E91401FFF7EDFD034637
:100E2000002B04D07B686FF000425A6115E04FF050
:100E30000002164BD7E91401FFF7D4FD0346002B3F
:100E400004D07B684FF000425A6106E0D7E91401F4
:100E5000FFF7E6FD02467B685A617B680822DA608C
:100E60003B689B68B96C07F108028A1A1A443B6810
:100E70009A60012318466037BD4680BDAFF30080FD
:100E80000000C0FFFFFFDF41E57F00040000E0C17C
:100E900080B485B000AF78600023FB600023BB60A6
:100EA0000023BB604CE07A68BB6813441B782F2B8F
:100EB0000FD97A68BB6813441B78392B09D87A6834
:100EC000BB6813441B781A46FB681344303BFB6035
:100ED0002DE07A68BB6813441B78402B0FD97A68E1
:100EE000BB6813441B78462B09D87A68BB68134447
:100EF0001B781A46FB681344373BFB6017E07A689F
:100F0000BB6813441B78602B0FD97A68BB68134405
:100F10001B78662B09D87A68BB6813441B781A467D
:100F2000FB681344573BFB6001E000230CE0BB6807
:100F3000022B02D8FB681B01FB60BB680133BB605E
:100F4000BB68032BAFD9FB6818461437BD4680BC7D
:100F50007047000080B58AB000AFF860B9607A6071
:100F600000237B620023FB61FB68BB61002387F8E1
:100F70002330002387F82230002387F82130002314
:100F800087F82030BA68BB69D31A052B40F3B780C5
:100F9000BB6902331846FFF77BFFF861FB69B3F5C5
:100FA0005C4F04D3FB69B3F5604FC0F0AA80FB69C6
:100FB000B3F5584F37D3FB69B3F55C4F33D2BB69F8
:100FC00006337B6100233B610C2387F82130BA682C
:100FD0007B69D31A052B40F396807B691B785C2BC9
:100FE00040F093807B6901331B78752B40F08D8036
:100FF0007B6902331846FFF74BFF38613B69B3F555
:101000005C4FC0F084803B69B3F5604F7FD2FB69D1
:101010009A02434B13403A69C2F30902134303F5A2
:1010200080337B6204E0062387F82130FB697B6212
:101030007B6A7F2B03D8012387F823301FE07B6A6C
:10104000B3F5006F06D2022387F82330C02387F858
:10105000203014E07B6AB3F5803F06D2032387F883
:101060002330E02387F8203009E07B6AB3F5881F3E
:101070004FD2042387F82330F02387F8203097F8E5
:101080002330013B87F8223015E07B6ADBB203F0A6
:101090003F03DAB27B68196897F822300B4462F09C
:1010A0007F02D2B21A707B6A9B097B6297F822306A
:1010B000013B87F8223097F82230002BE5D197F8D2
:1010C0002330012B09D97B6AD9B27B681B6897F85A
:1010D00020200A43D2B21A7007E07B6ADAB27B683A
:1010E0001B6802F07F02D2B21A707B681A6897F808
:1010F00023301A447B681A6097F821300BE000BF58
:1011000008E000BF06E000BF04E000BF02E000BF4F
:1011100000E000BF002318462837BD4680BD00BF51
:1011200000FC0F0080B58AB000AF786039603B6882
:101130001A683B689B68013313447B623B681A68FA
:101140003B689B68013313443B620023FB60002330
:10115000FB613B681A683B689B6813441B78222B31
:1011600040F0038100233B610023BB6117E03B6A31
:101170001B785C2B10D13B6A5A1C3B681B68D31A46
:101180001A463B685B689A4280F0F180BB69013384
:10119000BB613B6A01333B623B6A01333B623B68A4
:1011A0001B683A6AD31A1A463B685B689A4203D2B4
:1011B0003B6A1B78222BDAD13B681B683A6AD31A48
:1011C0001A463B685B689A4280F0D3803B6A1B7882
:1011D000222B40F0CE803B681A683B689B68134422
:1011E0003A6AD31A1A46BB69D31A3B613B681B693A
:1011F0003A69013210469847F861FB69002B00F00C
:10120000BA80FB69FB6094E07B6A1B785C2B08D09A
:101210007A6A531C7B62FB68591CF96012781A7059
:1012200087E00223FB753A6A7B6AD31A002B40F3EE
:10123000A4807B6A01331B78752B00F3A0805C2BA4
:1012400004DA222B5CD02F2B5AD098E05C3B192B70
:1012500000F2958001A252F823F000BF01130008AC
:101260007F1300087F1300087F1300087F13000816
:101270007F130008C51200087F1300087F130008C1
:101280007F130008D11200087F1300087F130008A5
:101290007F1300087F1300087F1300087F130008E6
:1012A0007F130008DD1200087F1300087F13000879
:1012B0007F130008E91200087F130008F5120008E8
:1012C00011130008FB685A1CFA6008221A702CE0FF
:1012D000FB685A1CFA600C221A7026E0FB685A1C44
:1012E000FA600A221A7020E0FB685A1CFA600D228C
:1012F0001A701AE0FB685A1CFA6009221A7014E08E
:101300007B6A5A1CFB68591CF96012781A700CE051
:1013100007F10C031A46396A786AFFF71BFE034689
:10132000FB75FB7D002B2CD000BFFB7D7A6A13443C
:101330007B627A6A3B6A9A42FFF466AFFB680022DE
:101340001A707B681022DA607B68FA691A613B6860
:101350001B683A6AD31A1A463B689A603B689B68D6
:101360005A1C3B689A6001231EE000BF0AE000BFE0
:1013700008E000BF06E000BF04E000BF02E000BFDD
:1013800000E000BFFB69002B03D03B685B69F86994
:1013900098477B6A002B06D03B681B687A6AD31A91
:1013A0001A463B689A60002318462837BD4680BD20
:1013B00080B483B000AF78607B68002B03D07B687B
:1013C0001B68002B01D100232CE07B68002B05D08B
:1013D0007B689A687B685B689A4206D37B6821E0E9
:1013E0007B689B685A1C7B689A607B68002B0DD0D9
:1013F0007B689A687B685B689A4207D27B681A6848
:101400007B689B6813441B78202BE9D97B689A681A
:101410007B685B689A4204D17B689B685A1E7B6834
:101420009A607B6818460C37BD4680BC7047000048
:1014300080B582B000AF78607B68002B07D07B68F6
:101440001B68002B03D07B689B68002B01D0002316
:101450001CE07B68002B18D07B689B681A1D7B689A
:101460005B689A4211D27B681A687B689B68134458
:1014700003220849184604F0BCFD0346002B04D1A2
:101480007B689B68DA1C7B689A607B681846083723
:10149000BD4680BDD07C000880B586B000AFF86046
:1014A000B9607A60FB68002B01D100230CE0F8687A
:1014B000FEF758FE034601337B617B68BA687969A1
:1014C000F86800F005F8034618461837BD4680BD99
:1014D00080B58EB000AFF860B9607A603B6007F10C
:1014E000180300221A605A609A60DA601A615A6121
:1014F0009A6100237B63414B00221A603F4B00221C
:101500005A60FB68002B42D0BB68002B3FD0FB68C1
:10151000BB61BB68FB6100233B62394A07F12803CA
:1015200007CA83E807003648FFF77EFB78637B6BCA
:10153000002B2ED007F118031846FFF779FF03465A
:101540001846FFF735FF03461946786B00F068F838
:101550000346002B1FD03B68002B0ED007F1180369
:101560001846FFF725FF3A6AFB699A4215D2BA6915
:101570003B6A13441B78002B0FD17B68002B04D0EF
:10158000BA693B6A1A447B681A607B6B31E000BF22
:1015900004E000BF02E000BF00E000BF7B6B002B57
:1015A00002D0786BFFF756FBFB68002B20D0FB685E
:1015B0003B6100237B613A6AFB699A4202D23B6A33
:1015C0007B6105E0FB69002B02D0FB69013B7B617D
:1015D0007B68002B04D03A697B691A447B681A60E7
:1015E000064B1A4607F1100393E8030082E8030054
:1015F000002318463837BD4680BD00BFFC010020DF
:101600000000002080B582B000AF78600022002189
:101610007868FFF741FF034618460837BD4680BD8E
:1016200080B582B000AF786039603B68002B03D092
:101630003B681B68002B01D10023D2E03B68002BE4
:101640001DD03B689B681A1D3B685B689A4216D8A0
:101650003B681A683B689B68134404226349184638
:1016600004F0C7FC0346002B09D17B680422DA6032
:101670003B689B681A1D3B689A600123B1E03B6898
:10168000002B1DD03B689B685A1D3B685B689A42E3
:1016900016D83B681A683B689B6813440522544976
:1016A000184604F0A6FC0346002B09D17B680122F2
:1016B000DA603B689B685A1D3B689A60012390E0A2
:1016C0003B68002B20D03B689B681A1D3B685B6819
:1016D0009A4219D83B681A683B689B6813440422F5
:1016E0004449184604F085FC0346002B0CD17B6866
:1016F0000222DA607B6801225A613B689B681A1DEE
:101700003B689A6001236CE03B68002B13D03B6878
:101710009A683B685B689A420DD23B681A683B68DE
:101720009B6813441B78222B05D139687868FFF732
:10173000F9FC034655E03B68002B23D03B689A68D0
:101740003B685B689A421DD23B681A683B689B689D
:1017500013441B782D2B0FD03B681A683B689B689D
:1017600013441B782F2B0DD93B681A683B689B6884
:1017700013441B78392B05D839687868FFF7BCFA11
:1017800003462EE03B68002B13D03B689A683B6809
:101790005B689A420DD23B681A683B689B681344A9
:1017A0001B785B2B05D13968786800F025F8034673
:1017B00017E03B68002B13D03B689A683B685B6876
:1017C0009A420DD23B681A683B689B6813441B78A9
:1017D0007B2B05D13968786800F0D2F8034600E029
:1017E000002318460837BD4680BD00BFA47C000812
:1017F000D47C0008DC7C000880B586B000AF78603F
:10180000396000237B6100233B613B68DB68B3F5F3
:101810007A7F01D30023AFE03B68DB685A1C3B684A
:10182000DA603B681A683B689B6813441B785B2B43
:1018300040F094803B689B685A1C3B689A6038680B
:10184000FFF7B6FD3B68002B0DD03B689A683B68FC
:101850005B689A4207D23B681A683B689B681344EE
:101860001B785D2B61D03B68002B05D03B689A68E4
:101870003B685B689A4205D33B689B685A1E3B688D
:101880009A6072E03B689B685A1E3B689A603B68AE
:1018900010331846FFF7C8F9F860FB68002B5FD0DB
:1018A0007B69002B04D1FB687B617B693B6107E0AE
:1018B0003B69FA681A60FB683A695A60FB683B61E9
:1018C0003B689B685A1C3B689A603868FFF770FD5C
:1018D00039683869FFF7A4FE0346002B42D0386808
:1018E000FFF766FD3B68002B0DD03B689A683B68AC
:1018F0005B689A4207D23B681A683B689B6813444E
:101900001B782C2BC3D03B68002B2DD03B689A68EA
:101910003B685B689A4227D23B681A683B689B68C1
:1019200013441B785D2B1FD100E000BF3B68DB68D0
:101930005A1E3B68DA607B69002B02D07B693A69EA
:101940005A607B682022DA607B687A699A603B681B
:101950009B685A1C3B689A6001230DE000BF04E0BD
:1019600000BF02E000BF00E000BF7B69002B02D097
:101970007869FFF76FF9002318461837BD4680BD18
:1019800080B586B000AF7860396000237B610023AA
:101990003B613B68DB68B3F57A7F01D30023EAE063
:1019A0003B68DB685A1C3B68DA603B68002B00F040
:1019B000D0803B689A683B685B689A4280F0C98037
:1019C0003B681A683B689B6813441B787B2B40F08C
:1019D000C0803B689B685A1C3B689A603868FFF778
:1019E000E7FC3B68002B0ED03B689A683B685B685D
:1019F0009A4208D23B681A683B689B6813441B787C
:101A00007D2B00F08D803B68002B05D03B689A68E9
:101A10003B685B689A4205D33B689B685A1E3B68EB
:101A20009A60A1E03B689B685A1E3B689A603B68DD
:101A300010331846FFF7F8F8F860FB68002B00F049
:101A40008A807B69002B04D1FB687B617B693B61E9
:101A500007E03B69FA681A60FB683A695A60FB68FC
:101A60003B613B689B685A1C3B689A603868FFF78B
:101A70009FFC39683869FFF755FB0346002B6CD093
:101A80003868FFF795FC3B691A693B691A623B6944
:101A900000221A613B68002B61D03B689A683B6862
:101AA0005B689A425BD23B681A683B689B68134448
:101AB0001B783A2B53D13B689B685A1C3B689A6051
:101AC0003868FFF775FC39683869FFF7A9FD0346E8
:101AD000002B46D03868FFF76BFC3B68002B0DD01D
:101AE0003B689A683B685B689A4207D23B681A6811
:101AF0003B689B6813441B782C2B98D03B68002BC9
:101B000031D03B689A683B685B689A422BD23B684D
:101B10001A683B689B6813441B787D2B23D100E037
:101B200000BF3B68DB685A1E3B68DA607B69002BAC
:101B300002D07B693A695A607B684022DA607B6830
:101B40007A699A603B689B685A1C3B689A600123DB
:101B500011E000BF08E000BF06E000BF04E000BFE6
:101B600002E000BF00E000BF7B69002B02D0786973
:101B7000FFF770F8002318461837BD4680BD80B5C2
:101B800086B000AFF860B9607A6000237B61FB68C3
:101B9000002B02D0BB68002B01D1002333E0FB688F
:101BA0009B687B617B68002B17D002E07B691B6818
:101BB0007B617B69002B1CD07B691B6A002B18D0D2
:101BC0007B691B6A1946B868FEF7C2FA0346002B08
:101BD000ECD10EE07B691B687B617B69002B08D030
:101BE0007B691B6A1946B868FEF7B2FF0346002BF3
:101BF000F0D17B69002B03D07B691B6A002B01D1DC
:101C0000002300E07B6918461837BD4680BD80B5CB
:101C100082B000AF78603960002239687868FFF7D9
:101C2000AEFF034618460837BD4680BD80B483B07A
:101C300000AF78607B68002B01D1002307E07B6850
:101C4000DB68DBB2082B0CBF01230023DBB2184694
:101C50000C37BD4680BC704780B582B000AF78605D
:101C60007B681B68104A934219D1104B1B785A1C91
:101C7000D1B20E4A11701A460D4B19780D4B99547A
:101C80000B4B1B787D2B05D1084B00221A700A4B99
:101C900001221A7001220649084802F051FC00BFD7
:101CA0000837BD4680BD00BF00380140C202002099
:101CB000C3020020A4020020C40200204C02002025
:101CC00080B500AF00F00CFE00F03CF800F038F9F1
:101CD00000F00CF900F072F8154B00225A73144B07
:101CE00000229A7301221349134802F029FC0021B3
:101CF000124801F0A7FE0421104801F0A3FE0821BC
:101D00000E4801F09FFE0C210C4801F09BFE0C4B8D
:101D10001B78012B04D100F095F9094B00221A70B1
:101D200000F068FB00F0B8FA642000F03BFEEEE73C
:101D300094020020C30200204C0200200402002074
:101D4000C402002080B590B000AF07F1180328222C
:101D50000021184604F045F93B1D00221A605A6024
:101D60009A60DA601A610223BB610123BB6210230F
:101D7000FB6200237B6307F11803184601F0AAF900
:101D80000346002B01D000F0BFFB0F237B60002334
:101D9000BB600023FB6000233B6100237B613B1D94
:101DA0000021184601F018FC0346002B01D000F07A
:101DB000ABFB00BF4037BD4680BD000080B58EB094
:101DC00000AF07F1280300221A605A609A60DA60B7
:101DD00007F1200300221A605A603B1D00221A609E
:101DE0005A609A60DA601A615A619A613D4B3E4AC4
:101DF0001A603C4B40F2E7325A603A4B00229A603C
:101E0000384B9F22DA60374B00221A61354B002293
:101E10009A61344801F06EFD0346002B01D000F0BA
:101E200073FB4FF48053BB6207F1280319462D481A
:101E300001F06CFF0346002B01D000F065FB294840
:101E400001F0A7FD0346002B01D000F05DFB00234D
:101E50003B6200237B6207F120031946214802F010
:101E6000C1FA0346002B01D000F04EFB60237B60DB
:101E70000023BB600023FB6000237B613B1D00222D
:101E80001946184801F080FE0346002B01D000F0EF
:101E90003BFB3B1D04221946124801F075FE034628
:101EA000002B01D000F030FB3B1D082219460D48E5
:101EB00001F06AFE0346002B01D000F025FB3B1D1C
:101EC0000C221946074801F05FFE0346002B01D0A3
:101ED00000F01AFB034800F05DFB00BF3837BD4639
:101EE00080BD00BF040200200008004080B500AFA4
:101EF000114B124A1A60104B4FF4E1325A600E4BEC
:101F000000229A600C4B0022DA600B4B00221A610F
:101F1000094B0C225A61084B00229A61064B0022A1
:101F2000DA61054802F0BCFA0346002B01D000F04C
:101F3000EBFA00BF80BD00BF4C020020003801401A
:101F400080B588B000AF07F1100300221A605A6014
:101F50009A60DA60374B9B69364A43F0100393610D
:101F6000344B9B6903F01003FB60FB68314B9B69AA
:101F7000304A43F0040393612E4B9B6903F0040342
:101F8000BB60BB682B4B9B692A4A43F008039361F3
:101F9000284B9B6903F008037B607B6801224FF4A8
:101FA0000051254801F07DF801227E21234801F0EF
:101FB00078F801223821224801F073F84FF40053D9
:101FC0003B6101237B610023BB610223FB6107F1BD
:101FD00010031946184800F0C9FE7E233B61012317
:101FE0007B610023BB610223FB6107F110031946EB
:101FF000124800F0BBFE40F602433B6100237B61C8
:102000000023BB6107F1100319460D4800F0AEFE36
:1020100038233B6101237B610023BB610223FB6109
:1020200007F110031946064800F0A0FE00BF203754
:10203000BD4680BD00100240001001400008014074
:10204000000C014080B584B000AF8548FFF7DAFA94
:10205000F8608449F868FFF7DAFDB860B868FEF701
:102060005FFD02460B4610461946FEF701FD03468A
:10207000FB71FB79013B0A2B00F2EB8001A252F8C5
:1020800023F000BFB1200008D7200008FD20000881
:1020900023210008492100086F210008952100082C
:1020A000BB210008E1210008072200082D220008BA
:1020B0006D49F868FFF7ABFD38603868FEF730FD12
:1020C00002460B4610461946FEF7D2FC0346DAB22A
:1020D000664B9A70BDE06649F868FFF798FD386076
:1020E0003868FEF71DFD02460B4610461946FEF7FE
:1020F000BFFC0346DAB25D4BDA70AAE05D49F868CE
:10210000FFF785FD38603868FEF70AFD02460B468A
:1021100010461946FEF7ACFC0346DAB2534B1A716F
:1021200097E05549F868FFF772FD38603868FEF7A8
:10213000F7FC02460B4610461946FEF799FC03468B
:10214000DAB24A4B5A7184E04C49F868FFF75FFDF8
:1021500038603868FEF7E4FC02460B461046194624
:10216000FEF786FC0346DAB2404B9A7171E04449AF
:10217000F868FFF74CFD38603868FEF7D1FC02467E
:102180000B4610461946FEF773FC0346DAB2374B8E
:10219000DA715EE03B49F868FFF739FD386038686E
:1021A000FEF7BEFC02460B4610461946FEF760FCE1
:1021B0000346DAB22D4B1A724BE03349F868FFF749
:1021C00026FD38603868FEF7ABFC02460B46104629
:1021D0001946FEF74DFC0346DAB2244B5A7238E03A
:1021E0002A49F868FFF713FD38603868FEF798FC55
:1021F00002460B4610461946FEF73AFC0346DAB291
:102200001A4B9A7225E02249F868FFF700FD386002
:102210003868FEF785FC02460B4610461946FEF765
:1022200027FC0346DAB2114BDA7212E01949F8685A
:10223000FFF7EDFC38603868FEF772FC02460B468B
:1022400010461946FEF714FC0346DAB2074B1A7320
:1022500000BFF868FEF7FEFC00BF1037BD4680BD2A
:10226000A4020020E47C0008EC7C0008940200201A
:10227000F47C0008FC7C0008047D00080C7D00084C
:10228000147D00081C7D0008247D00082C7D0008BA
:10229000347D00083C7D000880B500AF184B1B7BE7
:1022A0001A462021174800F0FCFE154B1B78012B25
:1022B00010D100221021134800F0F3FE0022082163
:1022C000104800F0EEFE0E4B01229A730C4B0122D7
:1022D0005A730FE0012210210A4800F0E2FE0122A9
:1022E0000821084800F0DDFE054B00229A73044BDC
:1022F00000225A7300F008F800F042F800BF80BDD9
:1023000094020020000C014080B500AF194B9B786F
:102310001A460221184800F0C4FE164BDB781A4614
:102320000421154800F0BDFE124B1B791A46082106
:10233000114800F0B6FE0F4B5B791A4610210E488B
:1023400000F0AFFE0B4B9B791A4620210A4800F0A3
:10235000A8FE084BDB791A464021074800F0A1FE91
:10236000044B9B7B1A461021044800F09AFE00BFE4
:1023700080BD00BF9402002000080140000C014015
:1023800080B500AF1A4B1B7A012B04D1B421012078
:1023900000F054F803E00021012000F04FF8144B46
:1023A0005B7A012B04D1B421022000F047F803E04E
:1023B0000021022000F042F80D4BDB7A012B04D102
:1023C000B421042000F03AF803E00021042000F0DA
:1023D00035F8074B5B78012B04D1B421032000F0C2
:1023E0002DF803E00021032000F028F800BF80BD95
:1023F0009402002080B500AF02210E4800F03AFEA2
:102400000346002B0CBF01230023DBB21A460A4B04
:102410001A704FF48061074800F02CFE0346002B31
:102420000CBF01230023DBB21A46034B5A7000BFD6
:1024300080BD00BF000C01409402002080B483B036
:1024400000AF03460A46FB711346BB71FB79013BA3
:10245000032B52D801A252F823F000BF6D240008CC
:102460008D240008AD240008CD240008BB79002B82
:1024700004D1244B1B6805225A6337E0BB79B42B87
:1024800034D1204B1B6814225A632FE0BB79002BF8
:1024900004D11C4B1B6805229A6329E0BB79B42B3D
:1024A00026D1184B1B6814229A6321E0BB79002BBC
:1024B00004D1144B1B680522DA631BE0BB79B42BF3
:1024C00018D1104B1B681422DA6313E0BB79002B80
:1024D00004D10C4B1B6805221A640DE0BB79B42BA8
:1024E0000AD1084B1B6814221A6405E000BF04E0FF
:1024F00000BF02E000BF00E000BF00BF0C37BD46D8
:1025000080BC70470402002080B400AF72B600BFE8
:10251000FEE7000080B483B000AF0E4B9B690D4A0C
:1025200043F0010393610B4B9B6903F001037B6054
:102530007B68084BDB69074A43F08053D361054B46
:10254000DB6903F080533B603B6800BF0C37BD463E
:1025500080BC70470010024080B485B000AF786046
:102560007B681B68094A93420BD1094BDB69084A17
:1025700043F00403D361064BDB6903F00403FB6003
:10258000FB6800BF1437BD4680BC704700080040A0
:102590000010024080B588B000AF786007F11003EA
:1025A00000221A605A609A60DA607B681B68104AE1
:1025B000934218D10F4B9B690E4A43F00803936175
:1025C0000C4B9B6903F00803FB60FB684FF47073CE
:1025D0003B6102237B610223FB6107F11003194673
:1025E000054800F0C3FB00BF2037BD4680BD00BFDB
:1025F0000008004000100240000C014080B588B087
:1026000000AF786007F1100300221A605A609A60E8
:10261000DA607B681B68204A934239D11F4B9B6963
:102620001E4A43F4804393611C4B9B6903F480432F
:10263000FB60FB68194B9B69184A43F004039361E4
:10264000164B9B6903F00403BB60BB684FF4007337
:102650003B6102237B610323FB6107F110031946F1
:102660000F4800F083FB4FF480633B6100237B61E4
:102670000023BB6107F110031946094800F076FBFF
:1026800000220521252000F088FA252000F0A1FA7B
:1026900000BF2037BD4680BD003801400010024019
:1026A0000008014080B400AFFEE780B400AFFEE751
:1026B00080B400AFFEE780B400AFFEE780B400AFA7
:1026C000FEE780B400AF00BFBD4680BC704780B459
:1026D00000AF00BFBD4680BC704780B400AF00BFF4
:1026E000BD4680BC704780B500AF00F03FF900BF29
:1026F00080BD000080B500AF024801F047FF00BF79
:1027000080BD00BF4C02002080B400AF01231846FA
:10271000BD4680BC704780B582B000AF786039603C
:1027200003F0D0FC034616221A604FF0FF33184620
:102730000837BD4680BD80B582B000AF78604FF0ED
:10274000FF317868FFF7E7FFFEE780B586B000AF9E
:10275000F860B9607A6000237B610AE0AFF3008023
:102760000146BB685A1CBA60CAB21A707B69013351
:102770007B617A697B689A42F0DB7B681846183780
:10278000BD4680BD80B586B000AFF860B9607A60A4
:1027900000237B6109E0BB685A1CBA601B781846AD
:1027A000AFF300807B6901337B617A697B689A4271
:1027B000F1DB7B6818461837BD4680BD80B483B016
:1027C00000AF78604FF0FF3318460C37BD4680BC31
:1027D000704780B483B000AF786039603B684FF4D5
:1027E00000525A60002318460C37BD4680BC704723
:1027F00080B483B000AF7860012318460C37BD4623
:1028000080BC704780B485B000AFF860B9607A6072
:10281000002318461437BD4680BC704780B586B08B
:1028200000AF7860144A154BD31A7B617B693B611A
:10283000134B1B68002B02D1114B124A1A60104B2C
:102840001A687B6813443A699A4207D203F03AFC4B
:1028500003460C221A604FF0FF3309E0084B1B6857
:10286000FB60074B1A687B681344054A1360FB68DA
:1028700018461837BD4680BD0050002000040000F7
:10288000C80200202004002080B400AF00BFBD4675
:1028900080BC7047FFF7F8FF0B480C490C4A002337
:1028A00002E0D458C4500433C4188C42F9D3094A06
:1028B000094C002301E013600432A242FBD303F071
:1028C00007FCFFF7FDF9704700000020E001002041
:1028D00034810008E00100201C040020FEE7000015
:1028E00080B500AF084B1B68074A43F01003136024
:1028F000032000F047F90F2000F008F8FFF70AFE68
:102900000023184680BD00BF0020024080B582B081
:1029100000AF7860124B1A68124B1B7819464FF4BF
:102920007A73B3FBF1F3B2FBF3F3184600F05FF9EF
:102930000346002B01D001230EE07B680F2B0AD841
:10294000002279684FF0FF3000F027F9064A7B68D3
:102950001360002300E0012318460837BD4680BD00
:102960000C000020140000201000002080B400AFF4
:10297000054B1B781A46054B1B681344034A13602A
:1029800000BFBD4680BC704714000020CC02002070
:1029900080B400AF024B1B681846BD4680BC704730
:1029A000CC02002080B584B000AF7860FFF7F0FF64
:1029B000B8607B68FB60FB68B3F1FF3F05D00A4B52
:1029C0001B781A46FB681344FB6000BFFFF7E0FF6B
:1029D0000246BB68D31AFA689A42F7D800BF00BF14
:1029E0001037BD4680BD00BF1400002080B485B004
:1029F00000AF78607B6803F00703FB600C4BDB687B
:102A0000BB60BA684FF6FF031340BB60FB681A0255
:102A1000BB68134343F0BF6343F40033BB60044A15
:102A2000BB68D36000BF1437BD4680BC704700BF91
:102A300000ED00E080B400AF044BDB681B0A03F03C
:102A400007031846BD4680BC704700BF00ED00E09C
:102A500080B483B000AF0346FB7197F90730002BB9
:102A60000BDBFB7903F01F02064997F907305B097E
:102A7000012000FA02F241F8232000BF0C37BD46C6
:102A800080BC704700E100E080B483B000AF034633
:102A90003960FB7197F90730002B0ADB3B68DAB22B
:102AA0000C4997F907301201D2B20B4483F8002386
:102AB0000AE03B68DAB20849FB7903F00F03043BF4
:102AC0001201D2B20B441A7600BF0C37BD4680BC4F
:102AD000704700BF00E100E000ED00E080B489B085
:102AE00000AFF860B9607A60FB6803F00703FB6130
:102AF000FB69C3F10703042B28BF0423BB61FB69F7
:102B00000433062B02D9FB69033B00E000237B6101
:102B10004FF0FF32BB6902FA03F3DA43BB681A4095
:102B20007B699A404FF0FF317B6901FA03F3D94387
:102B30007B680B40134318462437BD4680BC704762
:102B400080B582B000AF78607B68013BB3F1807FD5
:102B500001D301230FE00A4A7B68013B53600F2138
:102B60004FF0FF30FFF790FF054B00229A60044BB7
:102B700007221A60002318460837BD4680BD00BFF3
:102B800010E000E080B582B000AF78607868FFF7B1
:102B90002DFF00BF0837BD4680BD80B586B000AFB1
:102BA0000346B9607A60FB7300237B61FFF742FF45
:102BB00078617A68B9687869FFF790FF024697F9FB
:102BC0000F3011461846FFF75FFF00BF1837BD46AC
:102BD00080BD80B582B000AF0346FB7197F9073026
:102BE0001846FFF735FF00BF0837BD4680BD80B5EA
:102BF00082B000AF78607868FFF7A2FF03461846FE
:102C00000837BD4680BD80B485B000AF7860002332
:102C1000FB737B6893F82130DBB2022B08D07B6812
:102C200004229A637B68002283F82020012320E09D
:102C30007B681B681A687B681B6822F00E021A60AA
:102C40007B681B681A687B681B6822F001021A60A7
:102C50007B681A6C7B68DB6B012101FA02F25A6017
:102C60007B68012283F821207B68002283F82020E2
:102C7000FB7B18461437BD4680BC704780B584B0D6
:102C800000AF78600023FB737B6893F82130DBB2E0
:102C9000022B05D07B6804229A630123FB7351E069
:102CA0007B681B681A687B681B6822F00E021A603A
:102CB0007B681B681A687B681B6822F001021A6037
:102CC0007B681B68224A934229D07B681B68214A93
:102CD000934222D07B681B681F4A93421AD07B68BC
:102CE0001B681E4A934212D07B681B681C4A9342A1
:102CF0000AD07B681B681B4A934202D14FF48013B1
:102D00000EE04FF080730BE04FF4803308E04FF497
:102D1000805305E04FF4807302E0102300E00123AC
:102D2000114A53607B68012283F821207B680022CE
:102D300083F820207B685B6B002B03D07B685B6B88
:102D400078689847FB7B18461037BD4680BD00BFAA
:102D5000080002401C0002403000024044000240D3
:102D6000580002406C0002400000024080B48BB06A
:102D700000AF7860396000237B6200233B6269E129
:102D800001227B6A02FA03F3FB613B681B68FA6964
:102D90001340BB61BA69FB699A4240F058813B68B5
:102DA0005B689A4A93425ED0984A934275D8984A93
:102DB000934258D0964A93426FD8964A934252D043
:102DC000944A934269D8944A93424CD0924A93428F
:102DD00063D8924A934246D0904A93425DD8122BD0
:102DE0002AD8122B59D801A252F823F0672E0008D6
:102DF000412E0008532E0008952E00089B2E000837
:102E00009B2E00089B2E00089B2E00089B2E00087E
:102E10009B2E00089B2E00089B2E00089B2E00086E
:102E20009B2E00089B2E00089B2E00089B2E00085E
:102E3000492E00085D2E0008794A934213D02CE0F9
:102E40003B68DB683B6229E03B68DB6804333B623C
:102E500024E03B68DB6808333B621FE03B68DB68CB
:102E60000C333B621AE03B689B68002B02D10423C1
:102E70003B6213E03B689B68012B05D108233B6252
:102E80007B68FA691A6109E008233B627B68FA698A
:102E90005A6103E000233B6200E000BFBB69FF2BE7
:102EA00001D87B6801E07B6804337B61BB69FF2B41
:102EB00002D87B6A9B0002E07B6A083B9B003B6177
:102EC0007B691A680F213B6901FA03F3DB431A405F
:102ED000396A3B6901FA03F31A437B691A603B685C
:102EE0005B6803F08053002B00F0B1804D4B9B6971
:102EF0004C4A43F0010393614A4B9B6903F0010381
:102F0000BB60BB68484A7B6A9B08023352F8233097
:102F1000FB607B6A03F003039B000F2202FA03F3BA
:102F2000DB43FA681340FB607B68404A934213D04E
:102F30007B683F4A93420DD07B683E4A934207D05C
:102F40007B683D4A934201D1032306E0042304E059
:102F5000022302E0012300E000237A6A02F0030268
:102F600092009340FA681343FB602F497B6A9B08E9
:102F70000233FA6841F823203B685B6803F480134E
:102F8000002B06D02D4B9A682C49BB6913438B60EC
:102F900006E02A4B9A68BB69DB43284913408B60E3
:102FA0003B685B6803F40013002B06D0234BDA6800
:102FB0002249BB691343CB6006E0204BDA68BB694A
:102FC000DB431E491340CB603B685B6803F400336E
:102FD000002B06D0194B5A681849BB6913434B6044
:102FE00006E0164B5A68BB69DB43144913404B603B
:102FF0003B685B6803F48033002B21D00F4B1A68C9
:103000000E49BB6913430B6021E000BF0000321082
:1030100000003110000022100000211000001210EA
:1030200000001110001002400000014000080140A3
:10303000000C014000100140001401400004014058
:103040000B4B1A68BB69DB43094913400B607B6A71
:1030500001337B623B681A687B6A22FA03F3002B18
:103060007FF48EAE00BF00BF2C37BD4680BC7047DA
:103070000004014080B485B000AF78600B467B80CF
:103080007B689A687B881340002B02D00123FB7376
:1030900001E00023FB73FB7B18461437BD4680BC60
:1030A000704780B483B000AF78600B467B801346D6
:1030B0007B707B78002B03D07A887B681A6103E0F1
:1030C0007B881A047B681A6100BF0C37BD4680BC40
:1030D0007047000080B586B000AF78607B68002B39
:1030E00001D1012372E27B681B6803F00103002B0E
:1030F00000F08780924B5B6803F00C03042B0CD02C
:103100008F4B5B6803F00C03082B12D18C4B5B6870
:1031100003F48033B3F5803F0BD1894B1B6803F474
:103120000033002B6CD07B685B68002B68D10123D7
:103130004CE27B685B68B3F5803F06D1804B1B682F
:103140007F4A43F4803313602EE07B685B68002B7A
:103150000CD17B4B1B687A4A23F480331360784B85
:103160001B68774A23F4802313601DE07B685B684B
:10317000B3F5A02F0CD1724B1B68714A43F4802326
:1031800013606F4B1B686E4A43F4803313600BE08F
:103190006B4B1B686A4A23F480331360684B1B68CF
:1031A000674A23F4802313607B685B68002B13D08D
:1031B000FFF7EEFB386108E0FFF7EAFB02463B69E8
:1031C000D31A642B01D9032300E25D4B1B6803F47F
:1031D0000033002BF0D014E0FFF7DAFB386108E091
:1031E000FFF7D6FB02463B69D31A642B01D90323B0
:1031F000ECE1534B1B6803F40033002BF0D100E0EB
:1032000000BF7B681B6803F00203002B63D04C4BAC
:103210005B6803F00C03002B0BD0494B5B6803F099
:103220000C03082B1CD1464B5B6803F48033002B46
:1032300016D1434B1B6803F00203002B05D07B68BB
:103240001B69012B01D00123C0E13D4B1B6823F01A
:10325000F8027B685B69DB00394913430B603AE095
:103260007B681B69002B20D0364B01221A60FFF7C8
:103270008FFB386108E0FFF78BFB02463B69D31AEE
:10328000022B01D90323A1E12D4B1B6803F002039C
:10329000002BF0D02A4B1B6823F0F8027B685B6997
:1032A000DB00274913430B6015E0264B00221A6010
:1032B000FFF76EFB386108E0FFF76AFB02463B69E7
:1032C000D31A022B01D9032380E11D4B1B6803F0A5
:1032D0000203002BF0D17B681B6803F00803002B6E
:1032E0003AD07B689B69002B19D0174B01221A60DA
:1032F000FFF74EFB386108E0FFF74AFB02463B69E7
:10330000D31A022B01D9032360E10D4B5B6A03F052
:103310000203002BF0D0012000F0CEFA1CE00A4B93
:1033200000221A60FFF734FB38610FE0FFF730FB33
:1033300002463B69D31A022B08D9032346E100BF9A
:10334000001002400000424280044242924B5B6AFD
:1033500003F00203002BE9D17B681B6803F0040330
:10336000002B00F0A6800023FB758B4BDB6903F07C
:103370008053002B0DD1884BDB69874A43F0805383
:10338000D361854BDB6903F08053BB60BB680123CD
:10339000FB75824B1B6803F48073002B18D17F4BA5
:1033A0001B687E4A43F480731360FFF7F1FA3861BB
:1033B00008E0FFF7EDFA02463B69D31A642B01D906
:1033C000032303E1754B1B6803F48073002BF0D0DB
:1033D0007B68DB68012B06D16F4B1B6A6E4A43F09A
:1033E000010313622DE07B68DB68002B0CD16A4B74
:1033F0001B6A694A23F001031362674B1B6A664A22
:1034000023F0040313621CE07B68DB68052B0CD1FE
:10341000614B1B6A604A43F0040313625E4B1B6AF4
:103420005D4A43F0010313620BE05B4B1B6A5A4A8F
:1034300023F001031362584B1B6A574A23F004031D
:1034400013627B68DB68002B15D0FFF7A1FA3861A7
:103450000AE0FFF79DFA02463B69D31A41F288322F
:10346000934201D90323B1E04B4B1B6A03F00203E3
:10347000002BEED014E0FFF78BFA38610AE0FFF77B
:1034800087FA02463B69D31A41F28832934201D946
:1034900003239BE0404B1B6A03F00203002BEED199
:1034A000FB7D012B05D13C4BDB693B4A23F080536C
:1034B000D3617B68DB69002B00F08780364B5B684B
:1034C00003F00C03082B61D07B68DB69022B46D12B
:1034D000334B00221A60FFF75BFA386108E0FFF710
:1034E00057FA02463B69D31A022B01D903236DE038
:1034F000294B1B6803F00073002BF0D17B681B6A1B
:10350000B3F5803F08D1244B5B6823F400327B681D
:103510009B68214913434B601F4B5B6823F4741273
:103520007B68196A7B685B6A0B431B4913434B60DA
:103530001B4B01221A60FFF72BFA386108E0FFF7F6
:1035400027FA02463B69D31A022B01D903233DE037
:10355000114B1B6803F00073002BF0D035E0104BCB
:1035600000221A60FFF714FA386108E0FFF710FA3A
:1035700002463B69D31A022B01D9032326E0064BEE
:103580001B6803F00073002BF0D11EE07B68DB6941
:10359000012B07D1012319E0001002400070004008
:1035A000600042420B4B5B68FB60FB6803F48032B7
:1035B0007B681B6A9A4206D1FB6803F470127B6831
:1035C0005B6A9A4201D0012300E0002318461837B5
:1035D000BD4680BD0010024080B584B000AF786069
:1035E00039607B68002B01D10123D0E06A4B1B6856
:1035F00003F007033A689A4210D9674B1B6823F01F
:10360000070265493B6813430B60634B1B6803F07B
:1036100007033A689A4201D00123B8E07B681B682F
:1036200003F00203002B20D07B681B6803F0040327
:10363000002B05D0594B5B68584A43F4E063536054
:103640007B681B6803F00803002B05D0534B5B68B5
:10365000524A43F460535360504B5B6823F0F002CE
:103660007B689B684D4913434B607B681B6803F084
:103670000103002B40D07B685B68012B07D1474BCF
:103680001B6803F40033002B15D101237FE07B6816
:103690005B68022B07D1414B1B6803F00073002BC2
:1036A00009D1012373E03D4B1B6803F00203002B9B
:1036B00001D101236BE0394B5B6823F003027B6887
:1036C0005B68364913434B60FFF762F9F8600AE024
:1036D000FFF75EF90246FB68D31A41F28832934243
:1036E00001D9032353E02D4B5B6803F00C027B6888
:1036F0005B689B009A42EBD1274B1B6803F00703E2
:103700003A689A4210D2244B1B6823F007022249E0
:103710003B6813430B60204B1B6803F007033A68B8
:103720009A4201D0012332E07B681B6803F0040356
:10373000002B08D0194B5B6823F4E0627B68DB68E0
:10374000164913434B607B681B6803F00803002B8A
:1037500009D0124B5B6823F460527B681B69DB0065
:103760000E4913434B6000F021F802460B4B5B6897
:103770001B0903F00F030A49CB5C22FA03F3094A41
:103780001360094B1B681846FFF7C0F80023184662
:103790001037BD4680BD00BF00200240001002402F
:1037A000447D00080C0000201000002080B487B089
:1037B00000AF0023FB600023BB6000237B6100237C
:1037C0007B6000233B611E4B5B68FB60FB6803F082
:1037D0000C03042B02D0082B03D027E0194B3B61CC
:1037E00027E0FB689B0C03F00F03174AD35C7B6058
:1037F000FB6803F48033002B10D0114B5B685B0C2B
:1038000003F00103114AD35CBB607B680D4A03FBE4
:1038100002F2BB68B2FBF3F37B6104E07B680C4A05
:1038200002FB03F37B617B693B6102E0054B3B617B
:1038300000BF3B6918461C37BD4680BC704700BFBF
:103840000010024000127A005C7D00086C7D0008C8
:1038500000093D0080B400AF024B1B681846BD460E
:1038600080BC70470C00002080B500AFFFF7F2FF6E
:103870000246054B5B681B0A03F007030349CB5C58
:1038800022FA03F3184680BD00100240547D000860
:1038900080B500AFFFF7DEFF0246054B5B68DB0A31
:1038A00003F007030349CB5C22FA03F3184680BDFB
:1038B00000100240547D000880B485B000AF7860ED
:1038C0000A4B1B680A4AA2FB03235B0A7A6802FBC5
:1038D00003F3FB6000BFFB685A1EFA60002BF9D1AE
:1038E00000BF00BF1437BD4680BC70470C000020ED
:1038F000D34D621080B582B000AF78607B68002B3A
:1039000001D1012341E07B6893F83D30DBB2002B0D
:1039100006D17B68002283F83C207868FEF71CFE05
:103920007B68022283F83D207B681A687B68043339
:103930001946104600F0B2FA7B68012283F846204F
:103940007B68012283F83E207B68012283F83F20B8
:103950007B68012283F840207B68012283F84120A4
:103960007B68012283F842207B68012283F8432090
:103970007B68012283F844207B68012283F845207C
:103980007B68012283F83D20002318460837BD4696
:1039900080BD80B582B000AF78607B68002B01D11C
:1039A000012341E07B6893F83D30DBB2002B06D168
:1039B0007B68002283F83C20786800F039F87B6847
:1039C000022283F83D207B681A687B68043319461D
:1039D000104600F063FA7B68012283F846207B687A
:1039E000012283F83E207B68012283F83F207B6818
:1039F000012283F840207B68012283F841207B6804
:103A0000012283F842207B68012283F843207B68EF
:103A1000012283F844207B68012283F845207B68DB
:103A2000012283F83D20002318460837BD4680BD9B
:103A300080B483B000AF786000BF0C37BD4680BC57
:103A40007047000080B584B000AF786039603B6893
:103A5000002B09D17B6893F83E30DBB2012B14BFF9
:103A600001230023DBB222E03B68042B09D17B68F1
:103A700093F83F30DBB2012B14BF01230023DBB2EC
:103A800015E03B68082B09D17B6893F84030DBB226
:103A9000012B14BF01230023DBB208E07B6893F8FD
:103AA0004130DBB2012B14BF01230023DBB2002B1A
:103AB00001D001235EE03B68002B04D17B68022229
:103AC00083F83E2013E03B68042B04D17B6802227C
:103AD00083F83F200BE03B68082B04D17B6802226F
:103AE00083F8402003E07B68022283F841207B6852
:103AF0001B6801223968184600F050FC7B681B687F
:103B00001E4A934207D17B681B685A6C7B681B680E
:103B100042F400425A647B681B68184A93420ED0F4
:103B20007B681B68B3F1804F09D07B681B68144A1F
:103B3000934204D07B681B68124A934211D17B6880
:103B40001B689B6803F00703FB60FB68062B10D023
:103B50007B681B681A687B681B6842F001021A6068
:103B600007E07B681B681A687B681B6842F00102EB
:103B70001A60002318461037BD4680BD002C014056
:103B8000000400400008004080B586B000AFF86037
:103B9000B9607A600023FB75FB6893F83C30012B19
:103BA00001D10223AEE0FB68012283F83C207B6850
:103BB0000C2B00F29F8001A252F823F0F13B000889
:103BC000F53C0008F53C0008F53C0008313C0008D5
:103BD000F53C0008F53C0008F53C0008733C000883
:103BE000F53C0008F53C0008F53C0008B33C000833
:103BF000FB681B68B968184600F0B2F9FB681B68DF
:103C00009A69FB681B6842F008029A61FB681B68AE
:103C10009A69FB681B6822F004029A61FB681B68C2
:103C20009969BB681A69FB681B680A439A6164E07A
:103C3000FB681B68B968184600F0F8F9FB681B6858
:103C40009A69FB681B6842F400629A61FB681B6812
:103C50009A69FB681B6822F480629A61FB681B68A2
:103C60009969BB681B691A02FB681B680A439A6161
:103C700043E0FB681B68B968184600F041FAFB682E
:103C80001B68DA69FB681B6842F00802DA61FB68AE
:103C90001B68DA69FB681B6822F00402DA61FB68C2
:103CA0001B68D969BB681A69FB681B680A43DA613B
:103CB00023E0FB681B68B968184600F08BFAFB68C4
:103CC0001B68DA69FB681B6842F40062DA61FB6812
:103CD0001B68DA69FB681B6822F48062DA61FB68A2
:103CE0001B68D969BB681B691A02FB681B680A4319
:103CF000DA6102E00123FB7500BFFB68002283F854
:103D00003C20FB7D18461837BD4680BD80B584B089
:103D100000AF786039600023FB737B6893F83C3018
:103D2000012B01D10223B4E07B68012283F83C20FF
:103D30007B68022283F83D207B681B689B68BB6020
:103D4000BB6823F07703BB60BB6823F47F43BB6091
:103D50007B681B68BA689A603B681B68B3F5005FB4
:103D60003ED0B3F5005F00F28780B3F5805F00F0CE
:103D70008680B3F5805F7FD8702B1AD0702B7BD8EC
:103D8000602B50D0602B77D8502B3CD0502B73D861
:103D9000402B58D0402B6FD8302B64D0302B6BD8B1
:103DA000202B60D0202B67D8002B5CD0102B5AD052
:103DB00062E07B6818683B6899683B685A683B68B2
:103DC000DB6800F0CCFA7B681B689B68BB60BB6853
:103DD00043F07703BB607B681B68BA689A604FE06A
:103DE0007B6818683B6899683B685A683B68DB6881
:103DF00000F0B5FA7B681B689A687B681B6842F420
:103E000080429A603CE07B6818683B6859683B6870
:103E1000DB681A4600F02CFA7B681B6850211846B4
:103E200000F083FA2CE07B6818683B6859683B68AF
:103E3000DB681A4600F04AFA7B681B686021184666
:103E400000F073FA1CE07B6818683B6859683B68AF
:103E5000DB681A4600F00CFA7B681B6840211846A4
:103E600000F063FA0CE07B681A683B681B6819462F
:103E7000104600F05AFA03E00123FB7300E000BF94
:103E80007B68012283F83D207B68002283F83C2078
:103E9000FB7B18461037BD4680BD000080B485B05E
:103EA00000AF786039607B681B68FB607B68294ADB
:103EB00093420BD07B68B3F1804F07D07B68264AD2
:103EC000934203D07B68254A934208D1FB6823F0D4
:103ED0007003FB603B685B68FA681343FB607B68B8
:103EE0001C4A93420BD07B68B3F1804F07D07B68AC
:103EF000194A934203D07B68184A934208D1FB6861
:103F000023F44073FB603B68DB68FA681343FB6093
:103F1000FB6823F080023B685B691343FB607B68AE
:103F2000FA681A603B689A687B68DA623B681A68CC
:103F30007B689A627B68074A934203D13B681A699F
:103F40007B681A637B6801225A6100BF1437BD4643
:103F500080BC7047002C0140000400400008004075
:103F600080B487B000AF786039607B681B6A7B6182
:103F70007B681B6A23F001027B681A627B685B68BE
:103F80003B617B689B69FB60FB6823F07003FB600F
:103F9000FB6823F00303FB603B681B68FA6813436C
:103FA000FB607B6923F002037B613B689B687A6955
:103FB00013437B617B681C4A93420CD17B6923F0DD
:103FC00008037B613B68DB687A6913437B617B692B
:103FD00023F004037B617B68134A934211D13B6950
:103FE00023F480733B613B6923F400733B613B68BE
:103FF0005B693A6913433B613B689B693A691343C8
:104000003B617B683A695A607B68FA689A613B68F1
:104010005A687B685A637B687A691A6200BF1C37EA
:10402000BD4680BC704700BF002C014080B487B003
:1040300000AF786039607B681B6A7B617B681B6AB4
:1040400023F010027B681A627B685B683B617B68C7
:104050009B69FB60FB6823F4E043FB60FB6823F48F
:104060004073FB603B681B681B02FA681343FB60EC
:104070007B6923F020037B613B689B681B017A69A5
:1040800013437B617B681D4A93420DD17B6923F00A
:1040900080037B613B68DB681B017A6913437B61AA
:1040A0007B6923F040037B617B68144A934213D100
:1040B0003B6923F480633B613B6923F400633B610C
:1040C0003B685B699B003A6913433B613B689B69B2
:1040D0009B003A6913433B617B683A695A607B688D
:1040E000FA689A613B685A687B689A637B687A6968
:1040F0001A6200BF1C37BD4680BC7047002C0140CF
:1041000080B487B000AF786039607B681B6A7B61E0
:104110007B681B6A23F480727B681A627B685B6829
:104120003B617B68DB69FB60FB6823F07003FB602D
:10413000FB6823F00303FB603B681B68FA681343CA
:10414000FB607B6923F400737B613B689B681B0207
:104150007A6913437B617B681D4A93420DD17B6969
:1041600023F400637B613B68DB681B027A691343BD
:104170007B617B6923F480637B617B68144A934293
:1041800013D13B6923F480533B613B6923F4005313
:104190003B613B685B691B013A6913433B613B68C8
:1041A0009B691B013A6913433B617B683A695A601A
:1041B0007B68FA68DA613B685A687B68DA637B6817
:1041C0007A691A6200BF1C37BD4680BC704700BFC9
:1041D000002C014080B487B000AF786039607B6804
:1041E0001B6A3B617B681B6A23F480527B681A62FE
:1041F0007B685B687B617B68DB69FB60FB6823F441
:10420000E043FB60FB6823F44073FB603B681B6882
:104210001B02FA681343FB603B6923F400533B61C4
:104220003B689B681B033A6913433B617B680F4AF9
:10423000934209D17B6923F480437B613B685B69CE
:104240009B017A6913437B617B687A695A607B685A
:10425000FA68DA613B685A687B681A647B683A6975
:104260001A6200BF1C37BD4680BC7047002C01405D
:1042700080B487B000AFF860B9607A60FB681B6AF1
:104280007B61FB681B6A23F00102FB681A62FB6812
:104290009B693B613B6923F0F0033B617B681B0139
:1042A0003A6913433B617B6923F00A037B617A69B6
:1042B000BB6813437B61FB683A699A61FB687A6962
:1042C0001A6200BF1C37BD4680BC704780B487B0FF
:1042D00000AFF860B9607A60FB681B6A7B61FB68BD
:1042E0001B6A23F01002FB681A62FB689B693B6142
:1042F0003B6923F470433B617B681B033A691343BA
:104300003B617B6923F0A0037B61BB681B017A6979
:1043100013437B61FB683A699A61FB687A691A62A8
:1043200000BF1C37BD4680BC704780B485B000AF6D
:10433000786039607B689B68FB60FB6823F07003E2
:10434000FB603A68FB68134343F00703FB607B683C
:10435000FA689A6000BF1437BD4680BC704780B4CD
:1043600087B000AFF860B9607A603B60FB689B681B
:104370007B617B6923F47F437B613B681A027B6826
:104380001A43BB6813437A6913437B61FB687A69FC
:104390009A6000BF1C37BD4680BC704780B487B0B0
:1043A00000AFF860B9607A60BB6803F01F030122B8
:1043B00002FA03F37B61FB681A6A7B69DB431A40EC
:1043C000FB681A62FB681A6ABB6803F01F0379680E
:1043D00001FA03F31A43FB681A6200BF1C37BD469B
:1043E00080BC704780B485B000AF786039607B686E
:1043F00093F83C30012B01D1022346E07B68012277
:1044000083F83C207B68022283F83D207B681B6890
:104410005B68FB607B681B689B68BB60FB6823F084
:104420007003FB603B681B68FA681343FB607B68A2
:104430001B68FA685A607B681B68164A93420ED064
:104440007B681B68B3F1804F09D07B681B68124AF8
:10445000934204D07B681B68104A93420CD1BB681E
:1044600023F08003BB603B685B68BA681343BB60A2
:104470007B681B68BA689A607B68012283F83D20DC
:104480007B68002283F83C20002318461437BD4681
:1044900080BC7047002C0140000400400008004030
:1044A00080B582B000AF78607B68002B01D101231A
:1044B00042E07B6893F84130DBB2002B06D17B6889
:1044C000002283F840207868FEF798F87B68242261
:1044D00083F841207B681B68DA687B681B6822F4DC
:1044E0000052DA60786800F0D5FC7B681B681A69B6
:1044F0007B681B6822F490421A617B681B685A69CA
:104500007B681B6822F02A025A617B681B68DA68A4
:104510007B681B6842F40052DA607B6800225A64B0
:104520007B68202283F841207B68202283F8422088
:104530007B6800225A63002318460837BD4680BDB9
:1045400080B584B000AFF860B9601346FB80FB68AB
:1045500093F84230DBB2202B12D1BB68002B02D083
:10456000FB88002B01D101230BE0FB6800221A63BA
:10457000FB881A46B968F86800F0B7FA034600E00D
:10458000022318461037BD4680BD000080B5BAB082
:1045900000AF78607B681B681B68C7F8E4307B68F5
:1045A0001B68DB68C7F8E0307B681B685B69C7F88D
:1045B000DC300023C7F8D8300023C7F8D430D7F850
:1045C000E43003F00F03C7F8D830D7F8D830002B09
:1045D0000FD1D7F8E43003F02003002B09D0D7F82F
:1045E000E03003F02003002B03D0786800F093FB49
:1045F0005BE2D7F8D830002B00F0DE80D7F8DC3053
:1046000003F00103002B06D1D7F8E03003F49073D8
:10461000002B00F0D180D7F8E43003F00103002B29
:104620000BD0D7F8E03003F48073002B05D07B6803
:104630005B6C43F001027B685A64D7F8E43003F006
:104640000403002B0BD0D7F8DC3003F00103002B60
:1046500005D07B685B6C43F002027B685A64D7F834
:10466000E43003F00203002B0BD0D7F8DC3003F06A
:104670000103002B05D07B685B6C43F004027B6870
:104680005A64D7F8E43003F00803002B11D0D7F8B0
:10469000E03003F02003002B05D1D7F8DC3003F025
:1046A0000103002B05D07B685B6C43F008027B683C
:1046B0005A647B685B6C002B00F0F281D7F8E43021
:1046C00003F02003002B08D0D7F8E03003F02003DC
:1046D000002B02D0786800F01EFB7B681B685B69CA
:1046E00003F04003002B14BF01230023DBB2C7F803
:1046F000D4307B685B6C03F00803002B03D1D7F840
:10470000D430002B4FD0786800F028FA7B681B6803
:104710005B6903F04003002B41D07B681B681433B6
:10472000C7F89C30D7F89C3053E8003FC7F8983062
:10473000D7F8983023F04003C7F8D0307B681B6867
:104740001433D7F8D020C7F8A820C7F8A430D7F87A
:10475000A410D7F8A82041E80023C7F8A030D7F864
:10476000A030002BD9D17B68DB6B002B13D07B688A
:10477000DB6B7E4A5A637B68DB6B1846FEF77EFA7A
:104780000346002B16D07B68DB6B5B6B7A68D26BC1
:10479000104698470EE0786800F093F90AE07868D0
:1047A00000F08FF906E0786800F08BF97B68002252
:1047B0005A6475E100BF73E17B681B6B012B40F00D
:1047C0004F81D7F8E43003F01003002B00F048814C
:1047D000D7F8E03003F01003002B00F041810023F4
:1047E000BB607B681B681B68BB607B681B685B6881
:1047F000BB60BB687B681B685B6903F04003002BF0
:1048000000F0B6807B68DB6B1B685B68A7F8BE3086
:10481000B7F8BE30002B00F045817B689B8DB7F860
:10482000BE209A4280F03E817B68B7F8BE20DA85D0
:104830007B68DB6B9B69202B00F088807B681B68A2
:104840000C33C7F88830D7F8883053E8003FC7F8F2
:104850008430D7F8843023F48073C7F8B8307B688D
:104860001B680C33D7F8B820C7F89420C7F89030ED
:10487000D7F89010D7F8942041E80023C7F88C307F
:10488000D7F88C30002BD9D17B681B6814337B6739
:104890007B6F53E8003F3B673B6F23F00103C7F892
:1048A000B4307B681B681433D7F8B420C7F8802075
:1048B000FB67F96FD7F8802041E80023BB67BB6F27
:1048C000002BE1D17B681B6814333B663B6E53E8D9
:1048D000003FFB65FB6D23F04003C7F8B0307B68F9
:1048E0001B681433D7F8B020FA66BB66B96EFA6E4F
:1048F00041E800237B667B6E002BE3D17B6820229E
:1049000083F842207B6800221A637B681B680C33A3
:10491000FB64FB6C53E8003FBB64BB6C23F01003EB
:10492000C7F8AC307B681B680C33D7F8AC20BA658D
:104930007B65796DBA6D41E800233B653B6D002BCB
:10494000E3D17B68DB6B1846FEF75DF97B680222DA
:104950005A637B689A8D7B68DB8D9BB2D31A9BB2BE
:104960001946786800F0B6F89CE000BF214C0008BA
:104970007B689A8D7B68DB8D9BB2D31AA7F8CE300B
:104980007B68DB8D9BB2002B00F08E80B7F8CE30B9
:10499000002B00F089807B681B680C33BB63BB6B0A
:1049A00053E8003F7B637B6B23F49073C7F8C830F8
:1049B0007B681B680C33D7F8C8207A643B64396C79
:1049C0007A6C41E80023FB63FB6B002BE3D17B682F
:1049D0001B6814337B627B6A53E8003F3B623B6A8F
:1049E00023F00103C7F8C4307B681B681433D7F881
:1049F000C4203A63FB62F96A3A6B41E80023BB6268
:104A0000BB6A002BE3D17B68202283F842207B68BD
:104A100000221A637B681B680C333B613B6953E8D7
:104A2000003FFB60FB6823F01003C7F8C0307B68D1
:104A30001B680C33D7F8C020FA61BB61B969FA6909
:104A400041E800237B617B69002BE3D17B68022274
:104A50005A63B7F8CE301946786800F03BF823E087
:104A6000D7F8E43003F08003002B09D0D7F8E0300A
:104A700003F08003002B03D0786800F0E5F814E021
:104A8000D7F8E43003F04003002B0ED0D7F8E03025
:104A900003F04003002B08D0786800F024F904E00C
:104AA00000BF02E000BF00E000BFE837BD4680BDA8
:104AB00080B483B000AF786000BF0C37BD4680BCC7
:104AC000704780B483B000AF786000BF0C37BD463C
:104AD00080BC704780B483B000AF78600B467B80A9
:104AE00000BF0C37BD4680BC704780B485B000AFB6
:104AF000F860B9601346FB80FB68BA689A62FB688D
:104B0000FA889A85FB68FA88DA85FB6800225A647D
:104B1000FB68222283F84220FB681B69002B07D028
:104B2000FB681B68DA68FB681B6842F48072DA6015
:104B3000FB681B685A69FB681B6842F001025A61F6
:104B4000FB681B68DA68FB681B6842F02002DA60C9
:104B5000002318461437BD4680BC704780B495B01A
:104B600000AF78607B681B680C337B637B6B53E81A
:104B7000003F3B633B6B23F49073FB647B681B68D3
:104B80000C33FA6C3A64FB63F96B3A6C41E800232E
:104B9000BB63BB6B002BE5D17B681B6814333B62A6
:104BA0003B6A53E8003FFB61FB6923F00103BB64F0
:104BB0007B681B681433BA6CFA62BB62B96AFA6A22
:104BC00041E800237B627B6A002BE5D17B681B6B8D
:104BD000012B19D17B681B680C33FB60FB6853E821
:104BE000003FBB60BB6823F010037B647B681B68DD
:104BF0000C337A6CBA617B617969BA6941E8002348
:104C00003B613B69002BE5D17B68202283F8422081
:104C10007B6800221A6300BF5437BD4680BC7047D2
:104C200080B584B000AF78607B685B6AFB60FB682E
:104C30000022DA85FB680022DA84F868FFF741FF7A
:104C400000BF1037BD4680BD80B485B000AF78602E
:104C50007B6893F84130DBB2212B3ED17B689B68A7
:104C6000B3F5805F14D17B681B69002B10D17B6882
:104C70001B6AFB60FB681B881A467B681B68C2F3D3
:104C800008025A607B681B6A9A1C7B681A6208E0FB
:104C90007B681B6A591C7A6811621A787B681B68EA
:104CA0005A607B68DB8C9BB2013B9BB27A681946E9
:104CB000D184002B0FD17B681B68DA687B681B6886
:104CC00022F08002DA607B681B68DA687B681B6808
:104CD00042F04002DA60002300E002231846143755
:104CE000BD4680BC704780B582B000AF78607B68FD
:104CF0001B68DA687B681B6822F04002DA607B6818
:104D0000202283F841207868FFF7D2FE002318465E
:104D10000837BD4680BD80B58CB000AF78607B6839
:104D200093F84230DBB2222B40F0AE807B689B6868
:104D3000B3F5805F17D17B681B69002B13D100236B
:104D4000FB627B689B6ABB627B681B685B689BB28B
:104D5000C3F308039AB2BB6A1A807B689B6A9A1CE9
:104D60007B689A6226E07B689B6AFB620023BB62D9
:104D70007B689B68B3F5805F07D07B689B68002BDE
:104D80000AD17B681B69002B06D17B681B685B68B6
:104D9000DAB2FB6A1A7008E07B681B685B68DBB2FA
:104DA00003F07F03DAB2FB6A1A707B689B6A5A1CB5
:104DB0007B689A627B68DB8D9BB2013B9BB27A6811
:104DC0001946D185002B5DD17B681B68DA687B684A
:104DD0001B6822F02002DA607B681B68DA687B6857
:104DE0001B6822F48072DA607B681B685A697B68F2
:104DF0001B6822F001025A617B68202283F842205E
:104E00007B6800225A637B681B6B012B35D17B6862
:104E100000221A637B681B680C337B617B6953E853
:104E2000003F3B613B6923F010037B627B681B689A
:104E30000C337A6A3A62FB61F9693A6A41E8002305
:104E4000BB61BB69002BE5D17B681B681B6803F065
:104E50001003102B0AD10023FB607B681B681B68C2
:104E6000FB607B681B685B68FB60FB687B689B8DF5
:104E700019467868FFF72EFE02E07868FCF7ECFE32
:104E8000002302E0002300E0022318463037BD462D
:104E900080BD000080B584B000AF78607B681B687F
:104EA0001B6923F440517B68DA687B681B680A43FE
:104EB0001A617B689A687B681B691A437B685B6927
:104EC0001343BB607B681B68DB6823F4B05323F09B
:104ED0000C037A681268B9680B43D3607B681B685F
:104EE0005B6923F440717B689A697B681B680A439D
:104EF0005A617B681B682C4A934203D1FEF7C8FCB9
:104F0000F86002E0FEF7B0FCF860FA6813469B0018
:104F100013449A001A447B685B689B00B2FBF3F36E
:104F2000224AA2FB03235B091901FA6813469B007E
:104F300013449A001A447B685B689B00B2FBF3F24F
:104F40001A4BA3FB02035B09642000FB03F3D31A93
:104F50001B013233154AA2FB03235B0903F0F00364
:104F60001944FA6813469B0013449A001A447B685C
:104F70005B689B00B2FBF3F20C4BA3FB02035B09E3
:104F8000642000FB03F3D31A1B013233074AA2FB50
:104F900003235B0903F00F027B681B680A449A60D5
:104FA00000BF1037BD4680BD003801401F85EB5162
:104FB000024B0146186800F02BB800BFDC0100204E
:104FC000024B0146186801F0BFB800BFDC010020A9
:104FD00070B50E4E0C463168054611B901F050F817
:104FE00030602146284601F04BF8431C0AD0C41C0F
:104FF00024F00304A04207D0211A284601F040F80B
:10500000013001D14FF0FF34204670BDD4020020A2
:105010002DE9F843CD1C25F0030508350C2D38BFCC
:105020000C25002D074601DBA94205D90C230026DB
:105030003B603046BDE8F883DFF8D08000F068F8C8
:10504000D8F800301C465CBB29463846FFF7C0FF45
:10505000431C044655D1D8F800402646002E45D1C1
:10506000002C48D023683146384604EB030901F090
:1050700007F881453FD1216838466D1A2946FFF768
:10508000A7FF013037D023682B442360D8F80030C5
:10509000002B38D05A68A2422BD100225A600FE070
:1050A0002268521B1FD40B2A17D96119A34225600D
:1050B00018BF5960636808BFC8F8001062514B60A0
:1050C000384604F10B0600F029F826F00706231DE8
:1050D000F21AAED09B1BA350ABE7A3426268DDD1AE
:1050E000C8F80020ECE723466468ACE734467668ED
:1050F000B4E71346CCE70C2338463B6000F00EF8CB
:1051000097E72560DCE75B60FFDE00BFD002002090
:10511000014801F002B800BF18040020014800F067
:10512000FDBF00BF18040020024B0A460146186864
:1051300000F002B8DC0100202DE9F0418046144661
:105140000E4621B91146BDE8F041FFF761BF2AB90B
:1051500000F0FAFF25462846BDE8F08102F044F849
:105160008442074602D8B4EB500F12D8214640467D
:10517000FFF74EFF05460028EDD0BC4222463146DF
:1051800028BF3A4600F0CBFF3146404600F0DCFF36
:10519000E1E73546DFE72DE9F0410F46904601F0A3
:1051A000F3FE04460D46B8F1000F11D0C7F30A53C1
:1051B000C3F16B03002B0BDD00241B0503F17F55AE
:1051C00005F5401522462B46FBF790F904460D469F
:1051D00020462946BDE8F0812DE9F04F9FB0179297
:1051E000002204461A920D464FF000084FF00009C5
:1051F0000A46199211782B294AD038D80D2932D86D
:10520000082932D800293BD000220E92199E32780C
:10521000302A40F0B280727802F0DF02582A6ED154
:1052200002930E9B204601931AAB00938C4A1BAB52
:1052300019A901F039F810F00F07054605D0062F1F
:1052400028D10023013619960E93179B002B40F0AE
:10525000A0850E9BCBB1424609F10043104619468A
:105260001FB0BDE8F08F2029CED10132C1E72D2932
:10527000CAD101210E91511C19915278002AC5D131
:10528000179B1995002B40F0828542464B46E5E777
:105290000021EFE71A9A3AB135211CA801F060FF0E
:1052A00020461A9901F044FB013F1B9A042F06D8AF
:1052B000DFE807F014031D201400DDE91C89E9056F
:1052C00048BF49F0004929F000431B0D1B05002B86
:1052D000BBD100F0F7FE22230360B6E702F23342AF
:1052E000DDE91C8323F4801343EA0259E7E7DFF882
:1052F0007491E4E76FF000494FF0FF38DFE7199B46
:105300005A1C19925B78302BF9D0002B9DD00123C9
:105310004FF0000A0A22D3460593199BCDF828A026
:105320000B9319980678A6F13003D9B2092926D92A
:1053300001224D4900F05DFE002830D000203246A9
:1053400003465E460890652A01D0452A13D11EB94E
:10535000059A024394D00026199D6A1C19926A7816
:105360002B2A74D02D2A78D04FF0000CA2F13001F6
:1053700009297FD9199500279EE00023C8E7BBF1D2
:10538000080FD8BF0A9900F10100D6BF02FB013314
:1053900002FB0A3A0A930BF1010B1990C1E7199B22
:1053A0005A1C19925A78BBF1000F37D05E4608900C
:1053B000A2F13003092B12D90123C4E7199B013054
:1053C0005A1C19925A78302AF8D0A2F13103082BCE
:1053D00000F2E484089000200646199B0B93303AB3
:1053E00000F1010314D0089900EB060C1944089150
:1053F00033460A21634513D13318082B06F1010601
:1054000006441ADC0A230A9903FB01230A930023AA
:10541000199A1846511C19915278C9E75846D2E793
:10542000082B03F1010303DC0A9F4F430A97E1E7CE
:10543000102BD8BF01FB0AFADCE7102EDCBF0A23D1
:1054400003FB0A2AE3E700230893012380E74FF0D8
:10545000000CAA1C1992AA7888E74FF0010CF8E713
:105460007C7D00080000F07F6E7D0008199A511CB9
:1054700019915278302AF9D0A2F1310108293FF66A
:105480007AAF303A0992199A0C92199A571C1997C7
:105490005278A2F1300EBEF1090F38D90C997F1A5B
:1054A000082F44F61F6703DC09998F42A8BF0F46F7
:1054B000BCF1000F00D07F42002E4FD1059901436F
:1054C0007FF4C3AE002B7FF4DBAE692A29D026DC43
:1054D000492A26D04E2A7FF4D3AE9A4919A801F062
:1054E00025F900283FF4CCAE199B1B78282B2FD12F
:1054F00095491CAA19A801F02DF9052828D11D9B52
:10550000DDF8708043F0FF4949F4E0099DE60A2187
:10551000099F01FB0721A1F130020992B5E76E2A2C
:10552000D9E78A4919A801F001F900283FF4A8AE8B
:10553000199B8749013B19A8199301F0F7F810B995
:10554000199B013319934FF00008DFF808927CE6AD
:10555000814800F0F3FD8046894676E6089BBBF162
:10556000000F08BFB346FB1A102E0A983546099360
:10557000A8BF1025FAF740FF092E8046894613DDA3
:10558000764B03EBC50353E91223FAF7AFFF8046CE
:1055900050468946FAF730FF02460B4640464946D8
:1055A000FAF7EEFD804689460F2E36DC099B002B6C
:1055B0003FF44BAE22DD162B09DC6849424601EB75
:1055C000C3014B46D1E90001FAF790FFC3E7099AFE
:1055D000C6F12503934220DB604CC6F10F0604EBB5
:1055E000C6014246D1E900014B46FAF77FFF099B0D
:1055F0009E1B04EBC604D4E90023E5E7099B1633A0
:105600000BDB089B4046DF1B544B494603EBC707A7
:10561000D7E90023FBF794F89DE7099B751B1D4410
:10562000002D70DD15F00F030AD04C49424601EB06
:10563000C301D1E900014B46FAF758FF804689467D
:1056400035F00F054DD0B5F59A7F22DD0026B34623
:105650000B96089622234FF00008DFF8F89023609D
:105660000B9B002B3FF4F1AD20461A9901F060F935
:105670002046089901F05CF95946204601F058F996
:1056800020460B9901F054F93146204601F050F9BB
:10569000DBE5334B40460593002349469A462D11DE
:1056A000012D21DC0BB1804689462D49A9F15479A1
:1056B00001EBCA014246D1E900014B46FAF716FF59
:1056C000244B0A460B40274980468B42BED8A1F5A1
:1056D00080118B4286BF4FF0FF38DFF88C9002F1CB
:1056E0005479002305937BE0EA0705D5059BD3E9B0
:1056F0000023FAF7FBFE0123059A0AF1010A08329A
:105700006D100592CCE7ECD06D4215F00F020AD077
:10571000124B404603EBC2034946D3E90023FBF793
:105720000FF8804689462D11DBD01F2D1EDD002687
:10573000B3460B96089622234FF000084FF000095D
:1057400023608DE7797D0008907D0008707D00085A
:10575000737D00080000F07F19810008E87F0008D1
:10576000C07F00080000A07CFFFFEF7F15F0100352
:1057700018BF6A234046059349460023DFF8C8A2B4
:10578000EA0704D5DAE90023FAF7B0FE01236D1029
:105790000AF1080AF4D10BB180468946059BBBB1DA
:1057A000C9F30A52C2F16B03002B494610DD1F2BCF
:1057B00040F32881342BD8BF4FF0FF334FF000085F
:1057C000CFBF4FF05C79C2F14B02934003EA01096D
:1057D0000022002340464946FBF7F0F80028A6D1F6
:1057E0000A9B5A460093204633460B9901F008F96C
:1057F0000B9000283FF42AAF0026099A089B002A44
:10580000A3EB0703A8BF0023B346129322EAE27377
:1058100016930B9B2046596801F04AF8089000281F
:105820003FF418AF0B9B0C301A6903F10C010232E4
:10583000920000F074FC1CAB01931BAB009342463A
:105840004B462046CDF83080CDF83C9001F004FC6A
:105850001A9000283FF4FEAE0121204601F068F9BD
:10586000834600283FF4F6AE1B9F1C9A002FABBF67
:10587000129B169B07EB030ADD1B059BA8BF169D19
:10588000A7EB03071744714B07F1FF37B8BFDDF8EB
:1058900048A09F42C2F1360280F2C780DB1B1F2B5B
:1058A0004FF00101A2EB030200F3B38001FA03F30E
:1058B0001393002310930AEB0207059BBA45154486
:1058C0001D445346A8BF3B46AB42A8BF2B46002B06
:1058D000C2BFFF1AED1AAAEB030A129B002B17DDB9
:1058E00059461A46204601F0E1F9834600283FF464
:1058F000B1AE01461A9A204601F030F90A9000280C
:105900003FF4A8AE20461A9901F012F80A9B1A93A8
:10591000002F00F38F80099B002B08DD2046169A8C
:10592000089901F0C3F9089000283FF493AE002DC8
:1059300008DD2A462046089901F012FA089000284E
:105940003FF488AEBAF1000F08DD594652462046B2
:1059500001F006FA834600283FF47CAE2046089A00
:105960001A9901F085FA064600283FF473AE002527
:10597000C3685946C5600A9301F05EFAA8426BDA23
:105980000A9B53EA080340F08F80C9F31303002BEE
:1059900040F08A8029F000431B0D1B05B3F1D66F40
:1059A00040F28280736913B93369012B7CDD314683
:1059B0000122204601F0D4F95946064601F03CFA8E
:1059C000002871DD05994B46214A002900F08D80A1
:1059D00002EA0901B1F1D66F00F38780B1F15C7F73
:1059E0007FF7A9AE404649461A4B0022FAF77EFDE2
:1059F000174B80460B408946002B7FF435AE22239F
:105A0000236031E64FF0FF3202FA03F303EA08089D
:105A1000DEE6C7F17F4707F57F0707F57B47E237EB
:105A200001FA07F31093139145E700231093012324
:105A3000139340E73A4620461A9901F091F91A90DB
:105A400000287FF468AF05E6A87D000802FCFFFF90
:105A50000000F07F00005039CA4665D10A9AC9F3A8
:105A6000130352B39E4A93422AD1059B4146FBB190
:105A70009C4B4FF0FF3209EA0303B3F1D46F1AD8FD
:105A80001B0DC3F16B0302FA03F3994218D1964B35
:105A90009A4502D101313FF4DDAD4FF00008914B42
:105AA0000AEA030303F58019059B002B9AD1DBE575
:105AB0004FF0FF33E9E71346E7E753EA080381D0E5
:105AC000109BE3B113EA0A0FEED00A9B4046494609
:105AD000059AC3B1FFF75FFB02460B460C980F997E
